:020000040000fa
:080000000002040000000000f2
:020000040000fa
:04000800fa020000f8
:020000040000fa
:04000c00fa020000f4
:020000040000fa
:04001000fa020000f0
:020000040000fa
:04001400fa020000ec
:020000040000fa
:04001800fa020000e8
:020000040000fa
:04001c00fa020000e4
:020000040000fa
:04002000fa020000e0
:020000040000fa
:04002400fa020000dc
:020000040000fa
:04002800fa020000d8
:020000040000fa
:04002c00fa020000d4
:020000040000fa
:04003000fa020000d0
:020000040000fa
:04003400fa020000cc
:020000040000fa
:04003800fa020000c8
:020000040000fa
:04003c00fa020000c4
:020000040000fa
:04004000fa020000c0
:020000040000fa
:04004400fa020000bc
:020000040000fa
:04004800fa020000b8
:020000040000fa
:04004c00fa020000b4
:020000040000fa
:04005000fa020000b0
:020000040000fa
:04005400fa020000ac
:020000040000fa
:04005800fa020000a8
:020000040000fa
:04005c00fa020000a4
:020000040000fa
:04006000fa020000a0
:020000040000fa
:04006400fa0200009c
:020000040000fa
:04006800fa02000098
:020000040000fa
:04006c00fa02000094
:020000040000fa
:04007000fa02000090
:020000040000fa
:04007400fa0200008c
:020000040000fa
:04007800fa02000088
:020000040000fa
:04007c00fa02000084
:020000040000fa
:04008000fa02000080
:020000040000fa
:04008400fa0200007c
:020000040000fa
:04008800fa02000078
:020000040000fa
:04008c00fa02000074
:020000040000fa
:04009000fa02000070
:020000040000fa
:04009400fa0200006c
:020000040000fa
:04009800fa02000068
:020000040000fa
:04009c00fa02000064
:020000040000fa
:0400a000fa02000060
:020000040000fa
:0400a400fa0200005c
:020000040000fa
:0400a800fa02000058
:020000040000fa
:0400ac00fa02000054
:020000040000fa
:0400b000fa02000050
:020000040000fa
:0400b400fa0200004c
:020000040000fa
:0400b800fa02000048
:020000040000fa
:0400bc00fa02000044
:020000040000fa
:0400c000fa02000040
:020000040000fa
:0400c400fa0200003c
:020000040000fa
:0400c800fa02000038
:020000040000fa
:0400cc00fa02000034
:020000040000fa
:0400d000fa02000030
:020000040000fa
:0400d400fa0200002c
:020000040000fa
:0400d800fa02000028
:020000040000fa
:0400dc00fa02000024
:020000040000fa
:0400e000fa02000020
:020000040000fa
:0400e400fa0200001c
:020000040000fa
:0400e800fa02000018
:020000040000fa
:0400ec00fa02000014
:020000040000fa
:0400f000fa02000010
:020000040000fa
:0400f400fa0200000c
:020000040000fa
:0400f800fa02000008
:020000040000fa
:0400fc00fa02000004
:020000040000fa
:04010000fa020000ff
:020000040000fa
:04010400fa020000fb
:020000040000fa
:04010800fa020000f7
:020000040000fa
:04010c00fa020000f3
:020000040000fa
:04011000fa020000ef
:020000040000fa
:04011400fa020000eb
:020000040000fa
:04011800fa020000e7
:020000040000fa
:04011c00fa020000e3
:020000040000fa
:04012000fa020000df
:020000040000fa
:04012400fa020000db
:020000040000fa
:04012800fa020000d7
:020000040000fa
:04012c00fa020000d3
:020000040000fa
:04013000fa020000cf
:020000040000fa
:04013400fa020000cb
:020000040000fa
:04013800fa020000c7
:020000040000fa
:04013c00fa020000c3
:020000040000fa
:04014000fa020000bf
:020000040000fa
:04014400fa020000bb
:020000040000fa
:04014800fa020000b7
:020000040000fa
:04014c00fa020000b3
:020000040000fa
:04015000fa020000af
:020000040000fa
:04015400fa020000ab
:020000040000fa
:04015800fa020000a7
:020000040000fa
:04015c00fa020000a3
:020000040000fa
:04016000fa0200009f
:020000040000fa
:04016400fa0200009b
:020000040000fa
:04016800fa02000097
:020000040000fa
:04016c00fa02000093
:020000040000fa
:04017000fa0200008f
:020000040000fa
:04017400fa0200008b
:020000040000fa
:04017800fa02000087
:020000040000fa
:04017c00fa02000083
:020000040000fa
:04018000fa0200007f
:020000040000fa
:04018400fa0200007b
:020000040000fa
:04018800fa02000077
:020000040000fa
:04018c00fa02000073
:020000040000fa
:04019000fa0200006f
:020000040000fa
:04019400fa0200006b
:020000040000fa
:04019800fa02000067
:020000040000fa
:04019c00fa02000063
:020000040000fa
:0401a000fa0200005f
:020000040000fa
:0401a400fa0200005b
:020000040000fa
:0401a800fa02000057
:020000040000fa
:0401ac00fa02000053
:020000040000fa
:0401b000fa0200004f
:020000040000fa
:0401b400fa0200004b
:020000040000fa
:0401b800fa02000047
:020000040000fa
:0401bc00fa02000043
:020000040000fa
:0401c000fa0200003f
:020000040000fa
:0401c400fa0200003b
:020000040000fa
:0401c800fa02000037
:020000040000fa
:0401cc00fa02000033
:020000040000fa
:0401d000fa0200002f
:020000040000fa
:0401d400fa0200002b
:020000040000fa
:0401d800fa02000027
:020000040000fa
:0401dc00fa02000023
:020000040000fa
:0401e000fa0200001f
:020000040000fa
:0401e400fa0200001b
:020000040000fa
:0401e800fa02000017
:020000040000fa
:0401ec00fa02000013
:020000040000fa
:0401f000fa0200000f
:020000040000fa
:0401f400fa0200000b
:020000040000fa
:0401f800fa02000007
:020000040000fa
:0401fc00fa02000003
:020000040000fa
:04020000fa020000fe
:020000040000fa
:04020400fa020000fa
:020000040000fa
:04020800fa020000f6
:020000040000fa
:04020c00fa020000f2
:020000040000fa
:04021000fa020000ee
:020000040000fa
:04021400fa020000ea
:020000040000fa
:04021800fa020000e6
:020000040000fa
:04021c00fa020000e2
:020000040000fa
:04022000fa020000de
:020000040000fa
:04022400fa020000da
:020000040000fa
:04022800fa020000d6
:020000040000fa
:04022c00fa020000d2
:020000040000fa
:04023000fa020000ce
:020000040000fa
:04023400fa020000ca
:020000040000fa
:04023800fa020000c6
:020000040000fa
:04023c00fa020000c2
:020000040000fa
:04024000fa020000be
:020000040000fa
:04024400fa020000ba
:020000040000fa
:04024800fa020000b6
:020000040000fa
:04024c00fa020000b2
:020000040000fa
:04025000fa020000ae
:020000040000fa
:04025400fa020000aa
:020000040000fa
:04025800fa020000a6
:020000040000fa
:04025c00fa020000a2
:020000040000fa
:04026000fa0200009e
:020000040000fa
:04026400fa0200009a
:020000040000fa
:04026800fa02000096
:020000040000fa
:04026c00fa02000092
:020000040000fa
:04027000fa0200008e
:020000040000fa
:04027400fa0200008a
:020000040000fa
:04027800fa02000086
:020000040000fa
:04027c00fa02000082
:020000040000fa
:04028000fa0200007e
:020000040000fa
:100400000f0021000eff22000e01880000000000f6
:10041000000020000000e000020032000001200087
:100420002002880014000700740007000000e000ac
:1004300003003a0000002000010020000200370005
:100440000000200001002000810f70000100320038
:100450000f000700000020000000e0000200320052
:1004600000000200000000004e0402000000000036
:100470000040da000000fe00800320000000e000e1
:1004800002003200002020009001880000000600d9
:10049000a1028800800478000000eb001f003700f4
:1004a000e284440054a0b4009905ba00e2844400f8
:1004b00054a0b4009906ba00e284440054a0b400e9
:1004c0000006eb00476fde00fd07b200ae018800ba
:1004d000636ce10003003a000ad801000000eb0061
:1004e0000e003700606ce10008003a00004deb00a0
:1004f0000a05e800020039003420ec000af0a000f0
:100500008b05e900f9ff3e00040037006168e10057
:10051000010032000086eb000b00070019c7ba008b
:100520000e04e0001905ba0003003a000a00e000da
:10053000dbff3a0000000600fe07b200ae028800b2
:100540008a047800f5ff37000cd0a300e20f4d00bd
:100550001c00390089027800354dba000a05e80010
:10056000020039003420ec000af0a0008b05e900fd
:100570000f003200254dba000a05e80002003900dc
:100580003420ec000af0a0008b05e90008003200de
:100590000c00e0000600320015cdba000a05e800a4
:1005a000020039003420ec000af0a0008b05e900bd
:1005b0008984e80054a0b4000b00e000e2ff3a0098
:1005c000000006009902ba00055d78008b05e9007d
:1005d000f7ff3200c82ade00055d78008b05e900d0
:1005e000f3ff32000c00e000f1ff320019ddba0029
:1005f000eeff37000040da000000fe0000000500ba
:020000040000fa
:100600005354000041540000452000003d200000ec
:1006100053300000005300005441000054450000d6
:10062000203d000020530000310000005354000022
:1006300041540000452000003d20000053320000de
:10064000005300005441000054450000203d0000cc
:1006500020530000330000005354000041540000b8
:10066000452000003d200000533400000000000041
:020000040000fa
:100670000000fa000e2eef00f0012000007088004c
:100680001e2eef00000e2c00807088000080fa0003
:10069000000006000000fa00a0cc210001002000ac
:1006a0001703070013aea800a0cc21000100200012
:1006b0001303070013aea900a0cc21000100200005
:1006c0000f0307000080fa00000006000400fa0093
:1006d000000f7800110798001e0078000040780095
:1006e0006140600061406000614060000080fb008c
:1006f000610060004800dd00a2708000f1ef2f0073
:100700008100610001007000a07088001e00780068
:100710000080d100004078006140600061406000ce
:10072000614060000080fb00610060004900dd0066
:10073000a2708000f1df2f008100610001007000d5
:10074000a07088001e0078004280de000040780023
:100750006140600061406000614060000080fb001b
:10076000610060004a00dd00a2708000f1bf2f0030
:100770008100610001007000a07088001e007800f8
:100780004380de000040780061406000614060000e
:10079000614060000080fb00610060004b00dd00f4
:1007a000a2708000f17f2f008100610001007000c5
:1007b000a07088001e00900000407800614060003a
:1007c0000080fb00610060004c00dd009270800042
:1007d000f1ff2e0081006100010070009070880020
:1007e000acff0700130ea900132ea900134ea90099
:1007f000136ea900138ea90013aea9000080fa00a1
:10080000000006000400fa00000f780011079800ad
:10081000000f20001e0060004480de009e0090005b
:10082000aaff07009e0078006f8060009e00900085
:10083000a6ff07000080fa00000006000000fa0092
:100840008000eb0030002000a0ff07008000eb00dc
:10085000300020009dff07008000eb0030002000ea
:100860009aff07008000eb002000200097ff0700a0
:100870008000eb0080022000e2ff07008000eb0018
:1008800010002000dfff07008000eb00f0002000d8
:10089000dcff07000080fa00000006001200fa00ea
:1008a0000000eb00000f780071ff0700e3ff070076
:1008b000107080004300de00614060000080fb009b
:1008c0000000a20030079800107080004200de0097
:1008d000614060000080fb000000a200400798001b
:1008e000107080000000d100614060000080fb00bb
:1008f0000000a200500798001070800000407800af
:10090000614060000080fb000000a20060079800ca
:100910006e00900000004000800078005e009000b3
:100920000080400000004000800078004e009000f1
:100930000080400000004000800078003e009000f1
:1009400000804000700798001e007800e20f500001
:100950009e003200e20f500005003e000000e00063
:1009600008003200e10f50004f0032007b013700d9
:10097000e30f5000de003200e40f5000250132008a
:10098000760137007e009000cf80de00f20020006c
:1009900003002000820f5000838f580066013e0044
:1009a000000601000f003700110037001300370068
:1009b0001500370017003700190037001b003700fb
:1009c0001d0037001f0037002100370023003700cb
:1009d0002500370027003700290037002b0037009b
:1009e0002d0037000000eb00000f78002d003700cd
:1009f0000000eb00000f78002a0037000000eb0039
:100a0000000f7800270037000000eb00000f78008f
:100a1000240037000000eb00000f780021003700b1
:100a200010002000000f78001e0037000000eb00cf
:100a3000000f78001b0037000000eb00000f78006b
:100a4000180037000000eb00000f78001500370099
:100a50000000eb00000f7800120037000000eb00f0
:100a6000000f78000f0037000000eb00000f780047
:100a70000c0037000000eb00000f78000900370081
:100a80000000eb00000f7800060037000000eb00cc
:100a9000000f7800030037000000eb00000f780023
:100aa000000000002d0137007e009000cf80de00a6
:100ab000f200200003002000820f5000838f5800b6
:100ac0001f013e00000601000f0037001100370033
:100ad00013003700150037001700370019003700e2
:100ae0001b0037001d0037001f00370021003700b2
:100af0002300370025003700270037002900370082
:100b00002b0037002d00370010002000000f780068
:100b10002d0037000000eb00000f78002a0037009e
:100b20000000eb00000f7800270037000000eb000a
:100b3000000f7800240037000000eb00000f780061
:100b4000210037000000eb00000f78001e00370086
:100b50000000eb00000f78001b0037000000eb00e6
:100b6000000f7800180037000000eb00000f78003d
:100b70001500370020002000000f78001200370019
:100b80000000eb00000f78000f0037000000eb00c2
:100b9000000f78000c0037000000eb00000f780019
:100ba000090037000000eb00000f78000600370056
:100bb0000000eb00000f7800030037000000eb009e
:100bc000000f780000000000e40037007e00900075
:100bd000cf80de00f200200003002000820f5000d2
:100be000838f5800d8003e00000601000f00370038
:100bf00011003700130037001500370017003700c9
:100c0000190037001b0037001d0037001f00370098
:100c10002100370023003700250037002700370068
:100c2000290037002b0037002d003700200020005e
:100c3000000f78002d00370030002000000f7800f2
:100c40002a0037000000eb00000f78002700370073
:100c50000000eb00000f7800240037000000eb00dc
:100c6000000f7800210037000000eb00000f780033
:100c70001e0037000000eb00000f78001b0037005b
:100c80000000eb00000f7800180037000000eb00b8
:100c9000000f7800150037000000eb00000f78000f
:100ca000120037000000eb00000f78000f00370043
:100cb0000000eb00000f78000c0037000000eb0094
:100cc000000f7800090037000000eb00000f7800eb
:100cd000060037000000eb00000f7800030037002b
:100ce0000000eb00000f7800000000009b003700c0
:100cf0007e009000cf80de00f20020000300200084
:100d0000820f5000838f580091003e0000060100c2
:100d10000f003700110037001300370015003700af
:100d200017003700190037001b0037001d0037007f
:100d30001f0037002100370023003700250037004f
:100d400027003700290037002b0037002d0037001f
:100d500030002000000f78002d0037000000eb006d
:100d6000000f78002a0037000000eb00000f780029
:100d70002700370040002000000f780024003700d3
:100d80000000eb00000f7800210037000000eb00ae
:100d9000000f78001e0037000000eb00000f780005
:100da0001b0037000000eb00000f78001800370030
:100db0000000eb00000f7800150037000000eb008a
:100dc000000f7800120037000000eb00000f7800e1
:100dd0000f0037000000eb00000f78000c00370018
:100de0000000eb00000f7800090037000000eb0066
:100df000000f7800060037000000eb00000f7800bd
:100e0000030037000000eb00000f78000000000036
:100e1000520037007e009000cf80de00f2002000fc
:100e200003002000820f5000838f58004a003e00cc
:100e3000000601000f0037001100370013003700d3
:100e40001500370017003700190037001b00370066
:100e50001d0037001f003700210037002300370036
:100e60002500370027003700290037002b00370006
:100e70002d00370040002000000f78002d003700c3
:100e80000000eb00000f78002a0037000000eb00a4
:100e9000000f7800270037000000eb00000f7800fb
:100ea000240037000000eb00000f7800210037001d
:100eb0000000eb00000f78001e0037000000eb0080
:100ec000000f78001b0037000000eb00000f7800d7
:100ed000180037000000eb00000f78001500370005
:100ee0000000eb00000f7800120037000000eb005c
:100ef000000f78000f0037000000eb00000f7800b3
:100f00000c0037000000eb00000f780009003700ec
:100f10000000eb00000f7800060037000000eb0037
:100f2000000f7800030037000000eb00000f78008e
:100f30000000000009003700000000000700370033
:100f4000000000000500370000000000030037002b
:100f50000000000001003700000000001e007800c3
:100f6000e20f50003c003200e20f500005003e004e
:100f70000000e00008003200e10f50001e003200c7
:100f80007d003700e30f50004b003200e40f5000ab
:100f900061003200780037008000eb00000820007c
:100fa00018fe07000000eb00200798000a00370039
:100fb000013028002e009000008040001040780092
:100fc0000000fb00110020000efe07002e00900024
:100fd0000000e800200798002e009000e90f500064
:100fe000f3ff3600140ea800142ea900144ea90019
:100ff000146ea900600037008000eb00000820009c
:1010000000fe07000000eb00200798000a003700f0
:10101000b13028002e009000008040001040780081
:101020000000fb0011002000f6fd07002e009000dc
:101030000000e800200798002e009000e90f500003
:10104000f3ff3600140ea800142ea900144ea900b8
:10105000146ea800480037008000eb000008200054
:10106000e8fd07000000eb00200798000a003700a9
:10107000613128002e009000008040001040780070
:101080000000fb0011002000defd07002e00900094
:101090000000e800200798002e009000e90f5000a3
:1010a000f3ff3600140ea800142ea900144ea80059
:1010b000146ea900300037008000eb00000820000b
:1010c000d0fd07000000eb00200798000a00370061
:1010d000113228002e00900000804000104078005f
:1010e0000000fb0011002000c6fd07002e0090004c
:1010f0000000e800200798002e009000e90f500043
:10110000f3ff3600140ea800142ea900144ea800f8
:10111000146ea800180037008000eb0000082000c3
:10112000b8fd07000000eb00200798000a00370018
:10113000c13228002e00900000804000104078004e
:101140000000fb0011002000aefd07002e00900003
:101150000000e800200798002e009000e90f5000e2
:10116000f3ff3600140ea900142ea800144ea90097
:10117000146ea90000000000100020001007980065
:1011800029003700107080004400de0061406000dc
:101190000080fb000000a200000f98000e089000e5
:1011a000e10f500019003a000000eb00000f78003a
:1011b0008000eb000008200092fd07000000eb001b
:1011c000200798000a003700013028002e00900008
:1011d00000804000104078000000fb00110020005b
:1011e00088fd07002e0090000000e800200798000e
:1011f0002e009000e90f5000f3ff3600140ea800f7
:10120000142ea900144ea900146ea900148ea80073
:10121000a0cc210001002000390007001e00900032
:101220000000e800100798009e009000803e20001b
:10123000808f5000d3ff340010002000100798006a
:1012400029003700107080004400de00614060001b
:101250000080fb000000a200000f98000e08900024
:10126000e10f500019003a000000eb00000f780079
:101270008000eb000008200062fd07000000eb008a
:10128000200798000a003700013028002e00900047
:1012900000804000104078000000fb00110020009a
:1012a00058fd07002e0090000000e800200798007d
:1012b0002e009000e90f5000f3ff3600140ea80036
:1012c000142ea900144ea900146ea900148ea900b2
:1012d000a0cc210001002000090007001e009000a2
:1012e0000000e800100798009e009000803e20005b
:1012f000808f5000d3ff34000060fe006cfd37008b
:020000040000fa
:10130000f03fb1000180b10006003500ee03090096
:1013100000000000403fb1000180b100fbff3d0034
:101320001000b000203fb00002003500008009002e
:081330000000000000000600af
:020000040000fa
:020000040001f9
:045fe000ceff0000f0
:020000040000fa
:020000040001f9
:045fec00fbff0000b7
:00000001FF
